:020000040000FA
:040000008A110D282C
:10000800FE00030EF2000408F3000A08F4008A1147
:1000180013288A110F28F70183018A11DE288B1D06
:1000280016281728D5280B1C1A281B28D528413034
:10003800F100EE30F000F00B1F28F10B1F28000034
:10004800831203130609F03903192B282C28D42806
:1000580077098039031931283228D4280608F0395D
:10006800F0007008F6000F30831603138600831221
:100078000313860106080F39F0007008F604F03003
:100088008316031386008312031386017708F00092
:100098007008F5009F28F701D128F701F70AD12841
:1000A8000230F0007008F700D1280330F000700823
:1000B800F700D1280430F0007008F700D128053087
:1000C800F0007008F700D1280630F0007008F7003B
:1000D800D1280730F0007008F700D1280830F00068
:1000E8007008F700D1280930F0007008F700D1280F
:1000F8000A30F0007008F700D1280B30F0007008C3
:10010800F700D1280C30F0007008F700D1280D3026
:10011800F0007008F700D1280E30F0007008F700E2
:10012800D1280F30F0007008F700D1287508F000CA
:100138007008F700D1287608773A031995280C3A01
:1001480003199028063A03198B28033A03198628BD
:10015800C93A031981280C3A03197C28063A03196D
:100168007728033A03197228693A03196D280C3A5B
:1001780003196828063A03196328033A03195E2805
:10018800393A031959280C3A03195428063A03191D
:100198005128033A03194F289A28F717770885003A
:1001A8000B1074088A0073088400720E8300FE0E18
:1001B8007E0E0900831603138E15831203131F1472
:1001C8009F141F157030831603138500F0308600C6
:1001D80083120313850186018B158B17051EF528DD
:1001E800F628F2287F30A0002008F7057708850058
:0601F800F2288A110D2817
:02400E00103F61
:00000001FF
